:0400000061EF00F0BC
:0E0008004B82FACF24F0FBCF25F0E4ED0EF092
:100018004B80D8CF01F0E8CF02F0E0CF03F0FACF61
:1000280004F0FBCF05F0E9CF06F0EACF07F0E1CF07
:1000380008F0E2CF09F0D9CF0AF0DACF0BF0F3CF0E
:100048000CF0F4CF0DF0F6CF0EF0F7CF0FF0F8CF9D
:1000580010F0F5CF11F0A1A20CD0010E00018627F7
:10006800000E872388238923630EB36EC00EB26EF9
:10007800A19211C0F5FF10C0F8FF0FC0F7FF0EC026
:10008800F6FF0DC0F4FF0CC0F3FF0BC0DAFF0AC087
:10009800D9FF09C0E2FF08C0E1FF07C0EAFF06C0B8
:1000A800E9FF05C0FBFF04C0FAFF03C0E0FF02C080
:1000B800E8FF01C0D8FF4B90100034EF12F00001A8
:1000C800696F000169510001D8A458D00001642962
:1000D800D8A454D00F01019760C065F061C066F0E4
:1000E80062C067F063C068F0040E06D00001D890C3
:1000F8006833673366336533E82EF8D765C06AF02E
:1001080066C06BF067C06CF068C06DF000016A51A2
:1001180000016A6F6B6B6C6B6D6B6AC000FF070E3A
:100128000001601500016A6F000E000161150001F1
:100138006B6F000E0001621500016C6F000E00016C
:10014800631500016D6F6AC065F06BC066F06CC026
:1001580067F06DC068F0050ED89000016537663706
:1001680067376837E82EF8D765C06AF066C06BF065
:1001780067C06CF068C06DF06AC001FF00016905D6
:10018800D8A458D000016429D8A454D00F010597E9
:1001980060C065F061C066F062C067F063C068F077
:1001A800040E06D00001D890683367336633653390
:1001B800E82EF8D765C06AF066C06BF067C06CF0CF
:1001C80068C06DF000016A5100016A6F6B6B6C6B5F
:1001D8006D6B6AC004FF070E0001601500016A6FAD
:1001E800000E0001611500016B6F000E0001621521
:1001F80000016C6F000E0001631500016D6F6AC08D
:1002080065F06BC066F06CC067F06DC068F0050EF5
:10021800D89000016537663767376837E82EF8D712
:1002280065C06AF066C06BF067C06CF068C06DF0BE
:100238006AC005FF020E00016919D8A458D0000150
:100248006429D8A454D00F01099760C065F061C033
:1002580066F062C067F063C068F0040E06D0000163
:10026800D8906833673366336533E82EF8D765C0AE
:100278006AF066C06BF067C06CF068C06DF0000192
:100288006A5100016A6F6B6B6C6B6D6B6AC008FF1B
:10029800070E0001601500016A6F000E000161156C
:1002A80000016B6F000E0001621500016C6F000EFB
:1002B8000001631500016D6F6AC065F06BC066F0E0
:1002C8006CC067F06DC068F0050ED8900001653706
:1002D800663767376837E82EF8D765C06AF066C0B2
:1002E8006BF067C06CF068C06DF06AC009FF030E60
:1002F80000016919D8A458D000016429D8A454D0A1
:100308000F010D9760C065F061C066F062C067F0CC
:1003180063C068F0040E06D00001D89068336733D4
:1003280066336533E82EF8D765C06AF066C06BF0AF
:1003380067C06CF068C06DF000016A5100016A6F17
:100348006B6B6C6B6D6B6AC00CFF070E0001601560
:1003580000016A6F000E0001611500016B6F000E4D
:100368000001621500016C6F000E000163150001A9
:100378006D6F6AC065F06BC066F06CC067F06DC0E9
:1003880068F0050ED890000165376637673768371B
:10039800E82EF8D765C06AF066C06BF067C06CF0ED
:1003A80068C06DF06AC00DFF040E00016919D8A479
:1003B80058D000016429D8A454D00F01119760C007
:1003C80065F061C066F062C067F063C068F0040E53
:1003D80006D00001D8906833673366336533E82E5A
:1003E800F8D765C06AF066C06BF067C06CF068C08B
:1003F8006DF000016A5100016A6F6B6B6C6B6D6B7D
:100408006AC010FF070E0001601500016A6F000E38
:100418000001611500016B6F000E000162150001FB
:100428006C6F000E0001631500016D6F6AC065F006
:100438006BC066F06CC067F06DC068F0050ED890B0
:1004480000016537663767376837E82EF8D765C023
:100458006AF066C06BF067C06CF068C06DF06AC087
:1004680011FF050E00016919D8A458D000016429AC
:10047800D8A454D00F01159760C065F061C066F02C
:1004880062C067F063C068F0040E06D00001D8901F
:100498006833673366336533E82EF8D765C06AF08A
:1004A80066C06BF067C06CF068C06DF000016A51FF
:1004B80000016A6F6B6B6C6B6D6B6AC014FF070E83
:1004C8000001601500016A6F000E0001611500014E
:1004D8006B6F000E0001621500016C6F000E0001C9
:1004E800631500016D6F6AC065F06BC066F06CC083
:1004F80067F06DC068F0050ED89000016537663763
:1005080067376837E82EF8D765C06AF066C06BF0C1
:1005180067C06CF068C06DF06AC015FF00016951D2
:100528000001D8A489D0F70E00016419D8A484D09A
:100538000F0101870001605100016A6F6B6B6C6BE2
:100548006D6B6AC003FF000E0001601500016A6F41
:10055800FF0E0001611500016B6F000E00016215AE
:1005680000016C6F000E0001631500016D6F6AC019
:1005780065F06BC066F06CC067F06DC068F066C06F
:1005880065F067C066F068C067F00001686B65C019
:100598006AF066C06BF067C06CF068C06DF06AC046
:1005A80002FF000162A103D00F01018102D00F01F7
:1005B8000191000162A303D00F01018302D00F0152
:1005C8000193000162A503D00F01018B02D00F0136
:1005D800019B000162A703D00F01018D02D00F011A
:1005E800019D000162A903D00F01018F02D00F0104
:1005F800019F60C065F061C066F062C067F063C0CB
:1006080068F0160E06D00001D89068336733663359
:100618006533E82EF8D765C06AF066C06BF067C02E
:100628006CF068C06DF000016A5100016A6F6B6B75
:100638006C6B6D6B6AC000FF00016905D8A489D096
:10064800F70E00016419D8A484D00F0105870001B2
:10065800605100016A6F6B6B6C6B6D6B6AC007FF52
:10066800000E0001601500016A6FFF0E00016115A0
:1006780000016B6F000E0001621500016C6F000E27
:100688000001631500016D6F6AC065F06BC066F00C
:100698006CC067F06DC068F066C065F067C066F052
:1006A80068C067F00001686B65C06AF066C06BF0EF
:1006B80067C06CF068C06DF06AC006FF000162A1F7
:1006C80003D00F01058102D00F010591000162A33B
:1006D80003D00F01058302D00F010593000162A525
:1006E80003D00F01058B02D00F01059B000162A703
:1006F80003D00F01058D02D00F01059D000162A9ED
:1007080003D00F01058F02D00F01059F60C065F06F
:1007180061C066F062C067F063C068F0160E06D06C
:100728000001D8906833673366336533E82EF8D70D
:1007380065C06AF066C06BF067C06CF068C06DF0A9
:1007480000016A5100016A6F6B6B6C6B6D6B6AC05C
:1007580004FF020E00016919D8A489D0F70E000120
:100768006419D8A484D00F010987000160510001E1
:100778006A6F6B6B6C6B6D6B6AC00BFF000E0001D0
:10078800601500016A6FFF0E0001611500016B6FB3
:10079800000E0001621500016C6F000E0001631568
:1007A80000016D6F6AC065F06BC066F06CC067F0E1
:1007B8006DC068F066C065F067C066F068C067F035
:1007C8000001686B65C06AF066C06BF067C06CF0CA
:1007D80068C06DF06AC00AFF000162A103D00F0172
:1007E800098102D00F010991000162A303D00F0112
:1007F800098302D00F010993000162A503D00F01FC
:10080800098B02D00F01099B000162A703D00F01D9
:10081800098D02D00F01099D000162A903D00F01C3
:10082800098F02D00F01099F60C065F061C066F0B2
:1008380062C067F063C068F0160E06D00001D89059
:100848006833673366336533E82EF8D765C06AF0D6
:1008580066C06BF067C06CF068C06DF000016A514B
:1008680000016A6F6B6B6C6B6D6B6AC008FF030EDF
:1008780000016919D8A489D0F70E00016419D8A419
:1008880084D00F010D870001605100016A6F6B6B06
:100898006C6B6D6B6AC00FFF000E000160150001E4
:1008A8006A6FFF0E0001611500016B6F000E0001F9
:1008B800621500016C6F000E0001631500016D6F79
:1008C8006AC065F06BC066F06CC067F06DC068F018
:1008D80066C065F067C066F068C067F00001686BC5
:1008E80065C06AF066C06BF067C06CF068C06DF0F8
:1008F8006AC00EFF000162A103D00F010D8102D072
:100908000F010D91000162A303D00F010D8302D0E6
:100918000F010D93000162A503D00F010D8B02D0CA
:100928000F010D9B000162A703D00F010D8D02D0AE
:100938000F010D9D000162A903D00F010D8F02D098
:100948000F010D9F60C065F061C066F062C067F07E
:1009580063C068F0160E06D00001D890683367337C
:1009680066336533E82EF8D765C06AF066C06BF069
:1009780067C06CF068C06DF000016A5100016A6FD1
:100988006B6B6C6B6D6B6AC00CFF040E0001691910
:10099800D8A489D0F70E00016419D8A484D00F0117
:1009A80011870001605100016A6F6B6B6C6B6D6B96
:1009B8006AC013FF000E0001601500016A6FFF0E88
:1009C8000001611500016B6F000E00016215000146
:1009D8006C6F000E0001631500016D6F6AC065F051
:1009E8006BC066F06CC067F06DC068F066C065F0FB
:1009F80067C066F068C067F00001686B65C06AF0A0
:100A080066C06BF067C06CF068C06DF06AC012FF1A
:100A1800000162A103D00F01118102D00F011191D1
:100A2800000162A303D00F01118302D00F011193BB
:100A3800000162A503D00F01118B02D00F01119B99
:100A4800000162A703D00F01118D02D00F01119D83
:100A5800000162A903D00F01118F02D00F01119F6D
:100A680060C065F061C066F062C067F063C068F09E
:100A7800160E06D00001D8906833673366336533A5
:100A8800E82EF8D765C06AF066C06BF067C06CF0F6
:100A980068C06DF000016A5100016A6F6B6B6C6B86
:100AA8006D6B6AC010FF050E00016919D8A4120009
:100AB800F70E00016419D8A412000F011587000170
:100AC800605100016A6F6B6B6C6B6D6B6AC017FFCE
:100AD800000E0001601500016A6FFF0E000161152C
:100AE80000016B6F000E0001621500016C6F000EB3
:100AF8000001631500016D6F6AC065F06BC066F098
:100B08006CC067F06DC068F066C065F067C066F0DD
:100B180068C067F00001686B65C06AF066C06BF07A
:100B280067C06CF068C06DF06AC016FF000162A172
:100B380003D00F01158102D00F011591000162A3A6
:100B480003D00F01158302D00F011593000162A590
:100B580003D00F01158B02D00F01159B000162A76E
:100B680003D00F01158D02D00F01159D000162A958
:100B780003D00F01158F02D00F01159F60C065F0DB
:100B880061C066F062C067F063C068F0160E06D0F8
:100B98000001D8906833673366336533E82EF8D799
:100BA80065C06AF066C06BF067C06CF068C06DF035
:100BB80000016A5100016A6F6B6B6C6B6D6B6AC0E8
:100BC80014FF12000F0140B73FD166C045FF000176
:100BD80067AD03D00F01458D02D00F01459D00017F
:100BE80067A779D00001605100016C6F6D6B6E6B67
:100BF8006F6B6CC044FF000E0001601500016C6F44
:100C0800FF0E0001611500016D6F000E00016215F5
:100C180000016E6F000E0001631500016F6F6CC05C
:100C280068F06DC069F06EC06AF06FC06BF069C0A3
:100C380068F06AC069F06BC06AF000016B6B68C04D
:100C48006CF069C06DF06AC06EF06BC06FF06CC07C
:100C580043FF000E0F01426F0F014287000162A19E
:100C680002D00F014281000162A302D00F0142832A
:100C7800000162A502D00F01428B000162A702D0D9
:100C88000F01428D000162A902D00F01428F60C09E
:100C980068F061C069F062C06AF063C06BF0160E5C
:100CA80006D00001D8906B336A3369336833E82E75
:100CB800F8D768C06CF069C06DF06AC06EF06BC0A0
:100CC8006FF000016C5100016C6F6D6B6E6B6F6B98
:100CD8006CC041FF59D00F01429760C068F061C0F5
:100CE80069F062C06AF063C06BF0040E06D00001C0
:100CF800D8906B336A3369336833E82EF8D768C005
:100D08006CF069C06DF06AC06EF06BC06FF00001E6
:100D18006C5100016C6F6D6B6E6B6F6B6CC041FF3B
:100D2800070E0001601500016C6F000E00016115CF
:100D380000016D6F000E0001621500016E6F000E5C
:100D48000001631500016F6F6CC068F06DC069F039
:100D58006EC06AF06FC06BF0050ED890000168375E
:100D680069376A376B37E82EF8D768C06CF069C006
:100D78006DF06AC06EF06BC06FF00F0142511F0B2F
:100D88000F01426F6CC042FF000167A103D00F0141
:100D9800408102D00F014091000167A303D00F01E9
:100DA800408302D00F01409364C0D9FF65C0DAFFC9
:100DB800DF500F01466F000120EE01F06451D92683
:100DC8006551DA22DF500F01476F000120EE02F073
:100DD8006451D9266551DA22DF500F01486F0001AE
:100DE80020EE03F06451D9266551DA22DF500F0155
:100DF800496F000120EE04F06451D9266551DA22CA
:100E0800DF500F014A6F000120EE05F06451D9262A
:100E18006551DA22DF500F014B6F000120EE06F01A
:100E28006451D9266551DA22DF500F014C6F000159
:100E380020EE07F06451D9266551DA22DF500F0100
:100E48004D6F0F01408712000F0130B73FD166C0C8
:100E580035FF000167AD03D00F01358D02D00F01BA
:100E6800359D000167A779D00001605100016C6FC2
:100E78006D6B6E6B6F6B6CC034FF000E00016015FC
:100E880000016C6FFF0E0001611500016D6F000E0F
:100E98000001621500016E6F000E0001631500016C
:100EA8006F6F6CC068F06DC069F06EC06AF06FC09B
:100EB8006BF069C068F06AC069F06BC06AF0000145
:100EC8006B6B68C06CF069C06DF06AC06EF06BC087
:100ED8006FF06CC033FF000E0F01326F0F013287C5
:100EE800000162A102D00F013281000162A302D089
:100EF8000F013283000162A502D00F01328B00017D
:100F080062A702D00F01328D000162A902D00F0141
:100F1800328F60C068F061C069F062C06AF063C077
:100F28006BF0160E06D00001D8906B336A33693324
:100F38006833E82EF8D768C06CF069C06DF06AC0F5
:100F48006EF06BC06FF000016C5100016C6F6D6B3F
:100F58006E6B6F6B6CC031FF59D00F01329760C058
:100F680068F061C069F062C06AF063C06BF0040E9B
:100F780006D00001D8906B336A3369336833E82EA2
:100F8800F8D768C06CF069C06DF06AC06EF06BC0CD
:100F98006FF000016C5100016C6F6D6B6E6B6F6BC5
:100FA8006CC031FF070E0001601500016C6F000E68
:100FB8000001611500016D6F000E0001621500014E
:100FC8006E6F000E0001631500016F6F6CC068F052
:100FD8006DC069F06EC06AF06FC06BF0050ED890F6
:100FE8000001683769376A376B37E82EF8D768C069
:100FF8006CF069C06DF06AC06EF06BC06FF00F01E5
:1010080032511F0B0F01326F6CC032FF000167A114
:1010180003D00F01308102D00F013091000167A386
:1010280003D00F01308302D00F01309364C0D9FF81
:1010380065C0DAFFDF500F01366F000120EE01F0C6
:101048006451D9266551DA22DF500F01376F00014C
:1010580020EE02F06451D9266551DA22DF500F01E3
:10106800386F000120EE03F06451D9266551DA2269
:10107800DF500F01396F000120EE04F06451D926CA
:101088006551DA22DF500F013A6F000120EE05F0BA
:101098006451D9266551DA22DF500F013B6F0001F8
:1010A80020EE06F06451D9266551DA22DF500F018F
:1010B8003C6F000120EE07F06451D9266551DA2211
:1010C800DF500F013D6F0F01308712000F0120B76D
:1010D800120066C025FF000167AD03D00F01258D02
:1010E80002D00F01259D000167A779D0000160514A
:1010F80000016C6F6D6B6E6B6F6B6CC024FF000E24
:101108000001601500016C6FFF0E00016115000100
:101118006D6F000E0001621500016E6F000E000178
:10112800631500016F6F6CC068F06DC069F06EC028
:101138006AF06FC06BF069C068F06AC069F06BC094
:101148006AF000016B6B68C06CF069C06DF06AC032
:101158006EF06BC06FF06CC023FF000E0F01226FA2
:101168000F012287000162A102D00F012281000134
:1011780062A302D00F012283000162A502D00F01F1
:10118800228B000162A702D00F01228D000162A903
:1011980002D00F01228F60C068F061C069F062C0A0
:1011A8006AF063C06BF0160E06D00001D8906B335E
:1011B8006A3369336833E82EF8D768C06CF069C0C1
:1011C8006DF06AC06EF06BC06FF000016C510001E9
:1011D8006C6F6D6B6E6B6F6B6CC021FF59D00F011C
:1011E800229760C068F061C069F062C06AF063C0AD
:1011F8006BF0040E06D00001D8906B336A33693364
:101208006833E82EF8D768C06CF069C06DF06AC022
:101218006EF06BC06FF000016C5100016C6F6D6B6C
:101228006E6B6F6B6CC021FF070E0001601500012B
:101238006C6F000E0001611500016D6F000E00015A
:10124800621500016E6F000E0001631500016F6FDB
:101258006CC068F06DC069F06EC06AF06FC06BF06A
:10126800050ED8900001683769376A376B37E82E62
:10127800F8D768C06CF069C06DF06AC06EF06BC0DA
:101288006FF00F0122511F0B0F01226F6CC022FF5C
:10129800000167A103D00F01208102D00F01209126
:1012A800000167A303D00F01208302D00F01209310
:1012B80064C0D9FF65C0DAFFDF500F01266F000157
:1012C80020EE01F06451D9266551DA22DF500F0172
:1012D800276F000120EE02F06451D9266551DA2209
:1012E800DF500F01286F000120EE03F06451D9266A
:1012F8006551DA22DF500F01296F000120EE04F05A
:101308006451D9266551DA22DF500F012A6F000196
:1013180020EE05F06451D9266551DA22DF500F011D
:101328002B6F000120EE06F06451D9266551DA22B0
:10133800DF500F012C6F000120EE07F06451D92611
:101348006551DA22DF500F012D6F0F01208712003F
:10135800000E1C6E74BE1C8074BC1C820F0150AF42
:1013680043D112C0D9FF13C0DAFFDE6ADE6ADE6A33
:10137800DD6A20EE04F01250D9261350DA2256CF37
:10138800DFFF20EE05F01250D9261350DA2257CF8E
:10139800DFFF20EE06F01250D9261350DA2258CF7C
:1013A800DFFF20EE07F01250D9261350DA2259CF6A
:1013B800DFFF20EE08F01250D9261350DA225ACF58
:1013C800DFFF20EE09F01250D9261350DA225BCF46
:1013D800DFFF20EE0AF01250D9261350DA225CCF34
:1013E800DFFF20EE0BF01250D9261350DA225DCF22
:1013F800DFFF20EE0EF01250D9261350DA220F012B
:1014080055AD02D0010E01D0000EDF6E20EE0DF0BA
:101418001250D9261350DA220F0155510F0BDF6EE7
:1014280020EE0CF01250D9261350DA220F0152A7E1
:1014380002D0010E01D0000EDF6E0F0152B744D06A
:1014480051CF14F0156A166A176A030ED89014362D
:10145800153616361736E82EF9D712C0D9FF13C03D
:10146800DAFF14C0DEFF15C0DEFF16C0DEFF17C0AE
:10147800DEFF0F015239E842070B070B1D6E12C041
:10148800D9FF13C0DAFFDECF14F0DECF15F0DECFC0
:1014980016F0DECF17F01D501424186E000E15201C
:1014A800196E000E16201A6E000E17201B6E12C041
:1014B800D9FF13C0DAFF18C0DEFF19C0DEFF1AC05B
:1014C800DEFF1BC0DEFF8DD054CF14F0156A166AFC
:1014D800176A12C0D9FF13C0DAFF14C0DEFF15C0A7
:1014E800DEFF16C0DEFF17C0DEFF53CF14F0156A0B
:1014F800166A176A16C017F015C016F014C015F052
:10150800146A12C0D9FF13C0DAFF1450DE26155032
:10151800DE221650DE221750DE220F0152A10CD017
:1015280012C0D9FF13C0DAFF000EDE12000EDE1261
:10153800010EDE12000EDE120F0152A30CD012C0F3
:10154800D9FF13C0DAFF000EDE12000EDE12020E03
:10155800DE12000EDE120F0152AB0CD012C0D9FF02
:1015680013C0DAFF000EDE12000EDE12040EDE12C9
:10157800000EDE120F0152AD0CD012C0D9FF13C0FD
:10158800DAFF000EDE12000EDE12080EDE12000E6A
:10159800DE120F0152AF0CD012C0D9FF13C0DAFF10
:1015A800000EDE12000EDE12100EDE12000EDE122B
:1015B80051CF14F0156A166A176A150ED8901436AA
:1015C800153616361736E82EF9D712C0D9FF13C0CC
:1015D800DAFF1450DE121550DE121650DE121750C4
:1015E800DE120F01509F120060AE120012C0D9FF28
:1015F80013C0DAFFDE6ADE6ADE6ADD6A20EE04F016
:101608001250D9261350DA2266CFDFFF20EE05F0FC
:101618001250D9261350DA2267CFDFFF20EE06F0EA
:101628001250D9261350DA2268CFDFFF20EE07F0D8
:101638001250D9261350DA2269CFDFFF20EE08F0C6
:101648001250D9261350DA226ACFDFFF20EE09F0B4
:101658001250D9261350DA226BCFDFFF20EE0AF0A2
:101668001250D9261350DA226CCFDFFF20EE0BF090
:101678001250D9261350DA226DCFDFFF20EE0EF07C
:101688001250D9261350DA2265AC02D0010E01D0CF
:10169800000EDF6E20EE0DF01250D9261350DA221C
:1016A80065500F0BDF6E20EE0CF01250D926135048
:1016B800DA2262A602D0010E01D0000EDF6E62B6F9
:1016C80043D061CF14F0156A166A176A030ED890D2
:1016D8001436153616361736E82EF9D712C0D9FF44
:1016E80013C0DAFF14C0DEFF15C0DEFF16C0DEFF30
:1016F80017C0DEFF6238E842070B070B1D6E12C0E9
:10170800D9FF13C0DAFFDECF14F0DECF15F0DECF3D
:1017180016F0DECF17F01D501424186E000E152099
:10172800196E000E16201A6E000E17201B6E12C0BE
:10173800D9FF13C0DAFF18C0DEFF19C0DEFF1AC0D8
:10174800DEFF1BC0DEFF88D064CF14F0156A166A6E
:10175800176A12C0D9FF13C0DAFF14C0DEFF15C024
:10176800DEFF16C0DEFF17C0DEFF63CF14F0156A78
:10177800166A176A16C017F015C016F014C015F0CF
:10178800146A12C0D9FF13C0DAFF1450DE261550B0
:10179800DE221650DE221750DE2262A00CD012C0C4
:1017A800D9FF13C0DAFF000EDE12000EDE12010EA2
:1017B800DE12000EDE1262A20CD012C0D9FF13C0D6
:1017C800DAFF000EDE12000EDE12020EDE12000E2E
:1017D800DE1262AA0CD012C0D9FF13C0DAFF000EC5
:1017E800DE12000EDE12040EDE12000EDE1262ACF5
:1017F8000CD012C0D9FF13C0DAFF000EDE12000EA3
:10180800DE12080EDE12000EDE1262AE0CD012C01E
:10181800D9FF13C0DAFF000EDE12000EDE12100E22
:10182800DE12000EDE1261CF14F0156A166A176A0E
:10183800150ED8901436153616361736E82EF9D701
:1018480012C0D9FF13C0DAFF1450DE121550DE1291
:101858001650DE121750DE12609E12000001696FEA
:1018680000016905D8A456D000016429D8A452D033
:1018780060C065F061C066F062C067F063C068F080
:10188800040E06D00001D890683367336633653399
:10189800E82EF8D765C06AF066C06BF067C06CF0D8
:1018A80068C06DF000016A5100016A6F6B6B6C6B68
:1018B8006D6B6AC018FF070E0001601500016A6FA2
:1018C800000E0001611500016B6F000E000162152A
:1018D80000016C6F000E0001631500016D6F6AC096
:1018E80065F06BC066F06CC067F06DC068F0050EFF
:1018F800D89000016537663767376837E82EF8D71C
:1019080065C06AF066C06BF067C06CF068C06DF0C7
:101918006AC019FF020E00016919D8A456D0000147
:101928006429D8A452D060C065F061C066F062C076
:1019380067F063C068F0040E06D00001D8906833E1
:10194800673366336533E82EF8D765C06AF066C03A
:101958006BF067C06CF068C06DF000016A5100015F
:101968006A6F6B6B6C6B6D6B6AC01CFF070E0001B6
:10197800601500016A6F000E0001611500016B6FB0
:10198800000E0001621500016C6F000E0001631566
:1019980000016D6F6AC065F06BC066F06CC067F0DF
:1019A8006DC068F0050ED890000165376637673757
:1019B8006837E82EF8D765C06AF066C06BF067C074
:1019C8006CF068C06DF06AC01DFF00016905D8A4FD
:1019D80087D0F70E00016419D8A482D000016051A5
:1019E80000016A6F6B6B6C6B6D6B6AC01BFF000E3E
:1019F8000001601500016A6FFF0E0001611500010A
:101A08006B6F000E0001621500016C6F000E000183
:101A1800631500016D6F6AC065F06BC066F06CC03D
:101A280067F06DC068F066C065F067C066F068C0B2
:101A380067F00001686B65C06AF066C06BF067C04C
:101A48006CF068C06DF06AC01AFF000162A103D093
:101A58000F01198102D00F011991000162A303D06F
:101A68000F01198302D00F011993000162A503D059
:101A78000F01198B02D00F01199B000162A703D037
:101A88000F01198D02D00F01199D000162A903D021
:101A98000F01198F02D00F01199F60C065F061C056
:101AA80066F062C067F063C068F0160E06D00001E9
:101AB800D8906833673366336533E82EF8D765C046
:101AC8006AF066C06BF067C06CF068C06DF000012A
:101AD8006A5100016A6F6B6B6C6B6D6B6AC018FFA3
:101AE800020E00016919D8A41200F70E000164194A
:101AF800D8A412000001605100016A6F6B6B6C6B17
:101B08006D6B6AC01FFF000E0001601500016A6F4F
:101B1800FF0E0001611500016B6F000E00016215D8
:101B280000016C6F000E0001631500016D6F6AC043
:101B380065F06BC066F06CC067F06DC068F066C099
:101B480065F067C066F068C067F00001686B65C043
:101B58006AF066C06BF067C06CF068C06DF06AC070
:101B68001EFF000162A103D00F011D8102D00F01E9
:101B78001D91000162A303D00F011D8302D00F0144
:101B88001D93000162A503D00F011D8B02D00F0128
:101B98001D9B000162A703D00F011D8D02D00F010C
:101BA8001D9D000162A903D00F011D8F02D00F01F6
:101BB8001D9F60C065F061C066F062C067F063C0D9
:101BC80068F0160E06D00001D89068336733663384
:101BD8006533E82EF8D765C06AF066C06BF067C059
:101BE8006CF068C06DF000016A5100016A6F6B6BA0
:101BF8006C6B6D6B6AC01CFF12000001776F800E62
:101C0800B1EC12F0000E706E000E716E000E726E66
:101C180000017041E842C00B0001706F0001705173
:101C28007012000171517012000177517112000198
:101C38006E39E842F80B00016E6F00016E517112A7
:101C4800000172A5718C000172B1718E00016F5193
:101C58007212000172B3728C00017251600B606ED7
:101C680000017251100BFF0AD8B4608460CF50FF96
:101C7800000E0001606F000E616F000E626F000EB3
:101C8800636FF70E0001646F010E32EC0CF0000E6A
:101C98000001606F000E616F000E626F000E636FCF
:101CA800F70E0001646F020E32EC0CF00FD0F70E45
:101CB8000001786F07D0000178690001796928D0A0
:101CC80000017869F70E0001796F22D09F0E00019C
:101CD800736FFF0E0001746F00017251600B0001F9
:101CE800756F766B00017351000175130001745113
:101CF8000001761300017651000AD8A4E1D700014B
:101D08007551BF0AD8B4D7D7600AD8B4D0D7D8D7B6
:101D1800000E0001606F000E616F000E626F000E12
:101D2800636F78C064F0000E63EC00F0000E0001F1
:101D3800606F000E616F000E626F000E636F78C0F7
:101D480064F0010E63EC00F0000E0001606F000EFD
:101D5800616F000E626F000E636F79C064F0020E4F
:101D680063EC00F0000E0001606F000E616F000E62
:101D7800626F000E636F79C064F0030E63EC00F0CD
:101D8800000E0001606F000E616F000E626F000EA2
:101D9800636F79C064F0040E63EC00F0000E00017C
:101DA800606F000E616F000E626F000E636F79C086
:101DB80064F0050E63EC00F0000EB1EC12F01200B6
:101DC8000600E9CF26F0EACF27F0E1CF28F0E2CFEE
:101DD80029F0D9CF2AF0DACF2BF0F3CF2CF0F4CFBB
:101DE8002DF0F6CF2EF0F7CF2FF0F8CF30F0F5CF5B
:101DF80031F0A4A0A4B201D021D0BCEC12F00009AB
:101E0800D8B41AD03A0E126E000E136EACEC09F06C
:101E18004804D8A409D03AC08EF03BC08FF03CC02B
:101E280090F03DC091F04A82060E3A183B103C10E3
:101E38003D10D8B43EC09AF0A490A492F2A47DD0EC
:101E480082A002D0010E01D0000EFF0A206E82503F
:101E58002018FE0B2018826E82A068D0400E206EDB
:101E6800060E216E49C012F0136A050E156E780E23
:101E7800146E8CEC12F012C018F013C019F0000E9A
:101E88001B6EB40E1A6E85EC11F0D8901836193600
:101E9800205018262150192218C036F019C037F0E2
:101EA800000E37BEFF0E386E396E36C020F037C0D0
:101EB80021F038C022F039C023F0201E211E221E36
:101EC800231E202A000E212222222322000E202453
:101ED800366E000E2120376E010E2220386E000E5D
:101EE8002320396E36C020F037C021F038C022F0E8
:101EF80039C023F0201E211E221E231E202A000E78
:101F0800212222222322400E2024326E9C0E2120E0
:101F1800336E000E2220346E000E2320356E36C03C
:101F280012F037C013F0C7EC12F006D032C012F02E
:101F380033C013F0C7EC12F0F29431C0F5FF30C093
:101F4800F8FF2FC0F7FF2EC0F6FF2DC0F4FF2CC0FE
:101F5800F3FF2BC0DAFF2AC0D9FF29C0E2FF28C04F
:101F6800E1FF27C0EAFF26C0E9FF25C0FBFF24C028
:101F7800FAFF4B921100F1EC10F043EC11F0D76826
:101F8800FE0ED66ED58E4AA204D04A804AB003EC23
:101F980012F0D0EC12F0E806D8B404D0D6EC12F067
:101FA800E806D8B48180000198690001992B040ED5
:101FB8000001996F43EC11F0000E0001996F000EBB
:101FC8000001986F640E00019F6F8AC07AF08BC081
:101FD8007BF08CC07CF08DC07DF000017A1F7B1FE8
:101FE8007C1F7D1F7A2B000E7B237C237D23000121
:101FF800865100017A2500017E6F0001875100019A
:102008007B2100017F6F0001885100017C210001C4
:10201800806F0001895100017D210001816F9FC0FF
:1020280060F00001616B000E0001636F0A0E626FC1
:1020380092EC10F0000160C082F0000161C083F0F2
:10204800000E000183BFFF0E846F856F00017E5173
:102058000001825D00017F51000183590001805118
:10206800000184590001815100018559D8B08BD7EE
:1020780000019A51D8A447D09BC060F00001616B61
:10208800000E0001636F020E626F92EC10F0000107
:1020980061BF39D00001615105E1020E0001605DA8
:1020A800D8A031D09BC060F00001616B000E000128
:1020B800636F020E626F92EC10F000016051000134
:1020C8009B6F9BC060F00001616B000E0001636FA5
:1020D800110E626F92EC10F00001605100019C2516
:1020E8000001A86F0001A851FF0DF3CF60F0F4CFF5
:1020F80061F0000E0001636FB40E626F92EC10F095
:1021080000016051496E0001982B86C08AF087C093
:102118008BF088C08CF089C08DF035D7000E000197
:10212800656F000163AF08D00001626D631FD8B00E
:10213800632B010E0001656F000161AF08D000013B
:10214800606D611FD8B0612B010E0001651B000E88
:102158000001676F000E666F000162510001631194
:10216800D8B42CD0010E0001646F06D00001D890BD
:10217800623763370001642B000163AFF7D70001B2
:10218800D89066376737000162510001605D000131
:10219800635100016159D8A00AD0000162510001C1
:1021A800605F000163510001615B0001668100010D
:1021B800D890633362330001642FE1D70001655181
:1021C8000001D8B405D00001666D671FD8B0672B31
:1021D80066C060F067C061F01200000E896E9268F8
:1021E800000E8A6EFE0E936E000E8B6EFE0E946EBF
:1021F800000E8C6E9568000E8D6E9668100EC16E7E
:10220800060E00016E6F050E00016F6F010E0001D2
:10221800706F030E0001716F9D0E0001726F040E46
:1022280001EC0EF0D08EA492A490F294A192A58213
:10223800A580F184A292800ED56E630EB36EC00E97
:10224800B26EF18CA382A380F28AA082F28EF28C05
:10225800770EC16EC298C296C294C08AC088C096D2
:10226800C084C092C080C09EC280010EB16E000EB4
:102278000001676F020E666F54EC12F01200000E38
:1022880000019D6F12D0C282C2B2FED7C4CF9EF0A9
:1022980000019E51000196250001966F000E000175
:1022A80097210001976F00019D2B0001AA510001A1
:1022B8009D5DD8A0E8D796C060F097C061F0AAC02D
:1022C80062F00001636BC7EC11F0810E000160251C
:1022D8000001946FFF0E000161210001956F94C009
:1022E80067F095C068F00001D89068336733000143
:1022F800D89068336733000167517F0F00019C6FE6
:102308001200000E1D6E1BAE06D01A6C1B1ED8B034
:102318001B2A010E1D6E19AE06D0186C191ED8B0F6
:10232800192A010E1D1A000E1F6E000E1E6E1A507D
:102338001B10D8B41CD0010E1C6E04D0D8901A36CD
:102348001B361C2A1BAEFAD7D8901E361F361A50D9
:10235800185C1B501958D8A005D01A50185E1B508D
:10236800195A1E80D8901B321A321C2EEDD71D50D8
:10237800D8B404D01E6C1F1ED8B01F2A1EC018F077
:102388001FC019F01200000E0001656F000E646F87
:102398000001625100016311D8B42CD0010E000174
:1023A800666F06D00001D890623763370001662B4C
:1023B800000163AFF7D70001D89064376537000193
:1023C80062510001605D0001635100016159D8A0AC
:1023D8000AD0000162510001605F000163510001F1
:1023E800615B000164810001D890633362330001AE
:1023F800662FE1D764C060F065C061F012009FEC01
:1024080012F00009D8B429D0060E00018E19000177
:102418008F110001901100019111D8A41FD08EC016
:1024280060F08FC061F090C062F091C063F0A00EC0
:102438000001646F000E0001656F080E0001666FF1
:10244800BC0E0001676FE6EC05F00F0140BD05D03A
:102458000F0130BD02D04A9001D04A804A92120042
:1024680000EE86F0230EEE6AE806FDE14A6A00EE09
:1024780032F0180EEE6AE806FDE1B80EF66E250E8B
:10248800F76E000EF86E0900F5CFA9F00900F5CF38
:10249800AAF04B904B92000EF86E0001BFEF0FF0C0
:1024A800A9C060F00001616B66C062F067C063F0AC
:1024B80071EC12F060C092F061C093F007D0500E3A
:1024C800E82EFED700019207D8A093070001925189
:1024D80000019311D8B41200F2D700016051000135
:1024E8006203F3CF64F0F4CF65F00001605100019E
:1024F8006303F35000016527000161510001620385
:10250800F3500001652764C060F065C061F01200F7
:1025180012501402F3CF16F0F4CF17F01250150230
:10252800F350172613501402F350172616C012F052
:1025380017C013F01200010E0001606F0F0140A7D1
:1025480009D00F0130A706D00F0120A703D0000E35
:102558000001606F0001605112000001606F60C0EF
:102568006FFF6E50E00B00016019D8B41200F9D764
:10257800010E126E60BE05D00F0150BF02D0000ED2
:10258800126E1250120012C014F013C015F015C0CC
:10259800D7FF14C0D6FF120074A402D0010E120097
:1025A800000E120074A202D0010E1200000E1200DA
:0225B800100809
:020000040020DA
:08000000FFFFFFFFFFFFFFFF00
:020000040030CA
:0E000000FF021F1EFF8285FF0FC00FE00F40A2
:00000001FF
